:100000000C946E010C94B5010C94B5010C94B501DF
:100010000C94B5010C94B5010C94B5010C94B50188
:100020000C94B5010C94B5010C940F1E0C94E11EB8
:100030000C94FD140C94B5010C94B5010C94B5010D
:100040000C94B5010C94B5010C94B5010C94B50158
:100050000C94B5010C944A150C94B5010C94B5019F
:100060000C94B5010C94B5010C94B5010C94B50138
:100070000C94B5010C94B5010C94B5010C94B50128
:100080000C94B5010C94B5010C94B5010C94B50118
:100090000C94B5010C94B5010C94B5010C94B50108
:1000A0000C94B5010C94B5010C94B5016E0A6E0A5E
:1000B000A00AA00AED0A0B0B2C0C2C0C160BAB0B98
:1000C000BC0BBC0B1C0C2C0C2C0C250CCC0CCC0C29
:1000D000DE0CDE0CD50CDE0CDE0CDE0CCC0CCC0CFD
:1000E000DA0CDE0CDE0CDA0C4E1F751F6D20751F4E
:1000F0006D20C11FE41F6D203B204A20000000003E
:1001000062005F00600061005C005D005E005941BC
:100110005A425B4300000000A800AE000000A900A6
:10012000AC00AB00AA0001000000000000000000CD
:10013000680069006A006B006E006D006C000000D2
:100140000100000000000000005C00000000000052
:100150000000000000000000000001000403300067
:1001600000001603760061006700720061006E00F7
:1001700074002D00310030000000120353006800AD
:1001800061006E00640075007500720000000403D9
:10019000090409023B00020100A0FA090400000161
:1001A000030101000921110100012240000705811E
:1001B0000308000A090401000103000000092111DD
:1001C00001000122BC000705820320000A12011071
:1001D0000100000008EDFE6060010001020301055E
:1001E000010902A10185020901A1000509190129DE
:1001F000051500250195057501810295017503819D
:10020000010501093009311581257F9502750881A5
:100210000609381581257F950175088106050C0AA8
:1002200038021581257F950175088106C0C005013A
:100230000980A101850319012AB700150126B7001D
:10024000950175108100C0050C0901A101850419F3
:10025000012AA002150126A002950175108100C097
:1002600005010906A1018505050719E029E7150023
:1002700025019508750181020507190029EF150070
:10028000250195F0750181020508190129059505DB
:1002900075019102950175039101C005010906A13F
:1002A00001050719E029E715002501950875018169
:1002B000029501750881010507190029FF1500261F
:1002C000FF009506750881000508190129059505A7
:1002D00075019102950175039101C00011241FBEA3
:1002E000CFEFDAE0DEBFCDBF04B603FE27C08091BA
:1002F0004E0290914F02A0915002B091510287306E
:10030000904BA740B04BD1F410924E0210924F0286
:10031000109250021092510214BE84B7877F84BF9E
:100320000FB6F894A8958091600088618093600072
:10033000109260000FBEE0E0F8E3099511E0A0E044
:10034000B1E0E6E2F2E402C005900D92AE37B107EB
:10035000D9F722E0AEE7B1E001C01D92AE34B2079A
:10036000E1F70E943E1B0C9411210C9400000895AB
:10037000089581E0089581E008950C94BB010895EB
:100380000C94BF011F93CF93DF9300D000D01F9236
:10039000CDB7DEB749835A836B8330919001898151
:1003A0009A81311114C0662359F0222349F00E942A
:1003B0000512182F682F89819A810E94AE1103C0FF
:1003C0000E94D911182F69817A81812F04C00E945F
:1003D000051269817A810F900F900F900F900F9006
:1003E000DF91CF911F910C947402FC01262F408164
:1003F00051816281738184810C94C201CF93DF9318
:10040000EC0160E00E94F501BE01DF91CF910C94F8
:10041000C0010E943713811102C00E94E1130C94A5
:100420008E040C948C0408950C94130281E00895BA
:100430000C941602CF93C82F0E9414028C2F0E9496
:100440001802CF91089508950E94BA0C0E942302C9
:100450002FEF84E39CE0215080409040E1F700C002
:1004600000000C9470150F931F93CF93DF93EC0152
:1004700061E00E94F5018C01BE010E94BD0188234C
:1004800049F1BE01C8010E941506882319F1BE0179
:10049000C8010E9456068823E9F0BE01C8010E94E7
:1004A00081078823B9F08A81882369F001158CE5DA
:1004B000180731F00E3D1C4531F40E94E1130AC0CB
:1004C0000E94240207C0CE01DF91CF911F910F91AE
:1004D0000C94B90180E0DF91CF911F910F910895A5
:1004E00080E090E008950895272F30E0F901EE0FA5
:1004F000FF1F2E0F3F1FF9019CE0899FE00DF11DAA
:100500001124E60FF11DEE0FFF1FE450FF4F859100
:1005100094910895880F991FFC01E45AFE4F85912C
:1005200094910895CF93DF930E9474020E94AA03CE
:10053000EC018115904508F041C0C11580E4D80751
:1005400008F0D1C0C83ED10510F5C03ED10508F075
:10055000FDC0C83AD10578F4C53AD10508F0A2C06B
:10056000C130D10509F4F2C008F4EEC0C430D105A1
:1005700008F0ECC0E9C0CF3BD10508F49BC0C03CFB
:10058000D10508F4E1C0CE01805C91099EC0C1157F
:1005900090E2D90758F4C11521E0D20708F0D6C07F
:1005A000C03FD10508F4D0C0D065D0C0C11580E3EC
:1005B000D80708F08EC0CE019F7087C0C11595E5A1
:1005C000D90708F043C0C11524E5D20708F0A2C03E
:1005D000C11582E5D80708F5C11591E5D90708F0DE
:1005E00085C0CE0174E0969587957A95E1F7837082
:1005F0009C2F937021E030E002C0220F331F9A95A8
:10060000E2F73C68382BCF70C695C69580E2C89F4C
:10061000E0011124C22BD32B99C09E0123703327F4
:100620008C2F86958695C115D34508F064C0C1E02E
:10063000D0E002C0CC0FDD1F2A95E2F720E2829FB6
:10064000C0011124C82BD92BDC6880C0C11529E555
:10065000D207A0F4C11588E5D80708F060C0C1151D
:1006600096E5D90708F070C08C2F0E943E048F7168
:10067000C82FD0E0DC2FCC27D06268C0C1152AE596
:10068000D20708F451C0CE0190568115904208F06F
:100690005BC08D2F8F710E943E04DD27D0628F7169
:1006A000D82B54C0C55AD0E0CD5BDE4FC881D0E016
:1006B000D0644CC0C85AD0E0CC0FDD1FCB5EDE4FFB
:1006C0000990D881C02DD46441C00E948A02EC01F7
:1006D0003DC0CE019927D3FF03C0EC01D86C36C0D2
:1006E000EC01D06C33C0DF70D06A30C0DC2FCC2777
:1006F000C16FD06A2BC0C1E0D0E002C0CC0FDD1FBB
:100700002A95E2F720E2829FC0011124C82BD92B41
:10071000DA681CC0DC2FCC27C46FD06A17C0DC2F6E
:10072000CC27C06FD06A12C08C2F8F700E943E04FD
:1007300094E0D695C7959A95E1F7CF70D0E0DC2F7D
:10074000CC27D069C82B02C0C0E0D0E0CE01DF9139
:10075000CF9108958238910569F1B0F48133910504
:1007600009F46DC048F48932910509F463C08A32F6
:10077000910509F469C008958533910509F455C0C0
:1007800089339105B9F00895833E910569F138F4F4
:10079000803E9105B1F0823E910509F10895863EB3
:1007A0009105A9F1873E9105B9F1843E910509F0C3
:1007B00064C023C020913F0220FD4FC021FD4DC0E9
:1007C000089580913F0280FD44C08091400280FFE7
:1007D00044C080913F0284FD42C083EE4DC08091B1
:1007E0003F0282FF38C0F5CF80913F0282FD33C0C7
:1007F0008091400280FD31C0ECCF8091400281FFAA
:1008000032C080913F0284FD2AC087EE35C08091BE
:100810003F0283FF26C0F5CF80913F0283FD21C0B8
:100820008091400281FD1FC0ECCF80913F0285FD89
:100830001CC01DC080913F0285FD19C016C080916B
:100840003F0286FD16C017C080913F0286FD13C08F
:1008500010C089E311C082EE0FC080EE0DC080E0B1
:100860000BC086EE09C084EE07C089E205C085E3AF
:1008700003C08AE201C081E390E0089590913F02B5
:1008800092FF0DC0282F2871283019F4877F8460CB
:1008900006C0282F2471243011F48B7F886093FFC9
:1008A0000DC0282F2871283119F4877E846106C075
:1008B000282F2471243111F48B7E8861209140020D
:1008C00020FF0DC0382F3871383019F4877F8160D0
:1008D00006C0382F3171313011F48E7F886021FFCE
:1008E0000DC0282F2871283119F4877E816106C038
:1008F000282F2171213111F48E7E886194FD877E2D
:100900000895E82FF0E0E95CFD4F80810895089597
:1009100080EA8A95F1F708950C94B8010C94B70118
:10092000CF93DF93A9E4B1E04DE451E061E070E0E2
:100930008D91E82FE295EF70F0E021A18F70EB012F
:1009400002C0CC0FDD1F8A95E2F7CE019C2F909557
:10095000922391A392A1892B82A34A175B0741F7A7
:10096000A6E4B1E041E050E08D91E82FE295EF7010
:10097000F0E021A18F70BA0102C0660F771F8A953F
:10098000E2F7CB01962F9095922391A392A1892B08
:1009900082A371E0A934B70739F71092330210929D
:1009A00037021092340210923802109235021092DF
:1009B00039021092360210923A0284E00E946A05CF
:1009C000DF91CF910C9409026F927F928F929F9248
:1009D000AF92BF92CF92DF92EF92FF920F931F934D
:1009E000CF93DF9389E4882E81E0982E03E312E011
:1009F00097E3A92E92E0B92E712CCC24C394D12C6C
:100A0000F40181914F01C82FC295CF70D0E099A118
:100A10008F70760101C0EE0C8A95EAF7892F8E2936
:100A200089A38AA16E2C609486218AA30E948804DF
:100A3000E6E4F1E040E050E020E03191A32FA29500
:100A4000AF70B0E090968C9190E03F7002C09595A9
:100A500087953A95E2F780FD07C08C2D042E01C0E2
:100A6000880F0A94EAF701C080E0282B4F5F5F4FA0
:100A70004330510511F789A1682269A28AA1E82AA9
:100A8000EAA2F8018081281719F0208381E001C0D3
:100A900080E0782A0F5F1F4FA016B10609F0B0CF93
:100AA000272D44E067E372E083E392E00E946B0548
:100AB0000E941102872DDF91CF911F910F91FF901E
:100AC000EF90DF90CF90BF90AF909F908F907F90EE
:100AD0006F9008950895FF920F931F93CF93DF9324
:100AE0008C01F62ED72FC42F222349F081E080936A
:100AF00080010E942F1590937F0180937E01809149
:100B000080018823C1F080917E0190917F010E9435
:100B10003B15069780F0EF2DFD2FD8014C2F50E0AC
:100B2000CD01801B910B841795071CF48D91819347
:100B3000F7CF10928001DF91CF911F910F91FF901D
:100B400008950F931F93CF93DF93C62FD42F122FA7
:100B5000FC0182818823C9F0609383010E942F15D4
:100B6000909382018093810180E28C0F883008F09D
:100B700057C0C77081E001C0880FCA95EAF7DF91BE
:100B8000CF911F910F910C942A0A809183016813D1
:100B900030C080918101909182010E943B15883C78
:100BA000910538F500E20D0FCD17B9F080E28C0FFA
:100BB000883040F4C77081E001C0880FCA95EAF719
:100BC0000E94310A083028F581E09D2F977001C0FE
:100BD000880F9A95EAF70E942A0A812F0E94170A25
:100BE0000830F0F4D77081E001C0880FDA95EAF799
:100BF0000AC080E28C0F883098F4C77081E001C091
:100C0000880FCA95EAF7DF91CF911F910F910C944D
:100C1000310A812FDF91CF911F910F910C94170A08
:100C2000DF91CF911F910F9108959C01CB01233F3C
:100C30004CE53407F9F078F4283DFCE53F07B9F0BE
:100C4000293D4CE5340711F1273D3C4531F526E2BD
:100C500041EE61EE1EC0253FFCE53F0799F070F0C4
:100C6000263F3C45D1F427E245EE66EE12C027E26E
:100C700045EE0EC026E241EE60EE0BC027E245EEE7
:100C800064EE07C026E241EE62EE03C028E241E0D6
:100C900065EE0E94A10580E00895FC018281882311
:100CA00019F010928301089581E00895CF93DF93A6
:100CB000EC01FB018281882309F41FC1C230FCE5ED
:100CC000DF0708F41BC1C6319CE5D90738F09E0147
:100CD0002A5F3C452930310508F010C10E945413A9
:100CE0009093400280933F02C031ECE5DE0709F4A7
:100CF000C3C008F041C0C8308CE5D80709F49AC0D9
:100D0000F0F4C430ECE5DE0709F487C068F4C230C3
:100D10008CE5D80709F477C0C330DC4509F0E3C09F
:100D200080913F02826076C0C630ECE5DE0709F4B0
:100D30006EC008F07BC080913F0288606BC0CC30F1
:100D40008CE5D80709F485C068F4CA30ECE5DE0705
:100D500009F474C008F079C00E94BA0C80913F0277
:100D6000806858C0CE308CE5D80709F476C008F00A
:100D70007FC080913F028BC0CB3FECE5DE0709F4DA
:100D80004FC018F5C3318CE5D80709F47DC078F45D
:100D9000C131ECE5DE0709F473C0C231DC4509F06E
:100DA000A2C00E94BA0C80913F028F7733C0C53138
:100DB0008CE5D80709F472C008F486C0CA3FDC4548
:100DC00009F091C0809140023EC0CF3FFCE5DF07B3
:100DD00009F45FC058F4CD3F9CE5D90709F444C03D
:100DE00008F43FC08091400282602DC0C130FDE513
:100DF000DF0709F475C008F45DC0C230DD4509F0B5
:100E000072C080E06EC080913F02816003C080911B
:100E10003F02806180933F0266C080913F0211C013
:100E2000809140028260809340025DC080913F02C9
:100E30008062F0CF80913F028064ECCF80913F02CE
:100E400088608460E7CF8160EECF80913F028E7F23
:100E5000E1CF80913F028D7FDDCF80913F02877F80
:100E6000D9CF8091400218C0809140028D7FDBCFA6
:100E700080913F028F7ECECF80913F028F7DCACF7F
:100E800080913F028F7BC6CF80913F02877F8B7F0F
:100E9000C1CF809140028D7F8E7FC5CF80913F0270
:100EA00082FB222720F991E0922790FB82F990FBA8
:100EB00083F9B0CF80914002982F909591708E7FEA
:100EC000892B90FB81F9AFCF0E94BA0C80913F0231
:100ED00087FB222720F991E0922790FB87F99ACF90
:100EE00081E00E94E31380913F02909140020E94B2
:100EF00065130E94BA0C80E001C081E0DF91CF91C0
:100F00000895CF93DF9386319C4541F5EB010E9414
:100F10008612982F8A812091000130910101882347
:100F200079F09A7A81E009F480E08093840191114C
:100F300002C069E201C065E3C9010E947E140AC0D3
:100F400080918401811102C069E201C065E3C90199
:100F50000E9489140E94D41280E001C081E0DF91D8
:100F6000CF91089590938A01809389010895E0912B
:100F70008901F0918A01309721F00190F081E02DF4
:100F8000099480E00895E0918901F0918A013097F9
:100F900099F020911401222359F020913F0227FF5C
:100FA00007C0DC012C9111962C93119725E02C930E
:100FB0000280F381E02D09940895E0918901F09178
:100FC0008A01309739F022E0DC012C930480F5810E
:100FD000E02D099408952091870130918801281708
:100FE000390771F09093880180938701E09189011E
:100FF000F0918A01309721F00680F781E02D099465
:10100000089520918501309186012817390771F0E4
:101010009093860180938501E0918901F0918A0186
:10102000309721F00084F185E02D0994089585B76B
:10103000806885BF85B7806885BF089508950C9442
:101040001E080C941F080C941E080C941E080E9485
:1010500017080E9423080C94210881E008950C943D
:101060002D080E9426150E9490040E94C5150C941C
:101070002508AF92BF92CF92DF92EF92FF920F932B
:101080001F93CF93DF93CDB7DEB72A970FB6F894AF
:10109000DEBF0FBECDBF0E94E4040E942F08811165
:1010A00011C08FEF89838A831B820E942F15816074
:1010B000782F9D838C8349815A816B818D810E9419
:1010C000D10840C08CE8A82E81E0B82E00E010E0E6
:1010D000C02E802F0E948104E82EF501D1905F017F
:1010E000D82631F40F5F1F4F0430110589F7D9CF8F
:1010F0008091000281FD0E94870480E0FF24F39428
:101100009D2D9F21D1F08E83CF82EF2081E009F4C5
:1011100080E088870E942F158160782F9A878987C1
:101120004E815F8168858A850E94D108F801E45765
:10113000FE4F8081F826F08205C08F5FFF0C833060
:10114000F9F6D0CF0E9479180E94B70790918B01D1
:101150008917B1F00E94B70780938B012A960FB6CA
:10116000F894DEBF0FBECDBFDF91CF911F910F91DD
:10117000FF90EF90DF90CF90BF90AF900C941A0249
:101180002A960FB6F894DEBF0FBECDBFDF91CF9188
:101190001F910F91FF90EF90DF90CF90BF90AF9095
:1011A0000895CF93DF93CDB7DEB72B970FB6F894A2
:1011B000DEBF0FBECDBF4F83588769877A878B8785
:1011C000DE01119686E0FD0111928A95E9F785E02E
:1011D000FE01379601900D928A95E1F749815A8177
:1011E0006B817C818D819E810E94730F2B960FB63F
:1011F000F894DEBF0FBECDBFDF91CF910895FC0103
:10120000808191810E9447120895CF93882309F429
:10121000A4C0C82F8238C1F40E94B70781FD9DC0C9
:1012200069E380910001909101010E947E140E9467
:10123000D4122FEF81EE94E0215080409040E1F7EE
:1012400000C0000069E319C0833801F50E94B707A8
:1012500080FD83C063E580910001909101010E94AF
:101260007E140E94D4122FEF81EE94E02150804032
:101270009040E1F700C0000063E58091000190918B
:1012800001010E948914CF910C94D4128438C1F4C6
:101290000E94B70782FD61C067E4809100019091D0
:1012A00001010E947E140E94D4122FEF81EE94E07F
:1012B000215080409040E1F700C0000067E4DDCF9E
:1012C0008CEF8C0F813AD0F46C2F809100019091BB
:1012D00001010E94FE13882349F06C2F80910001C8
:1012E000909101010E9489140E94D4126C2F809168
:1012F0000001909101010E947E14C5CF80E28C0F05
:10130000883048F4C77081E001C0880FCA95EAF7B9
:101310000E948912B8CFEBE5EC0FE33040F4F0E027
:10132000E558FE4F808190E0CF910C94EB07E8E503
:10133000EC0FE73150F4F0E0EE0FFF1FE35BFE4FE0
:1013400080819181CF910C940108C03F30F08C2FA7
:101350000E948117CF910C946E18CF910895882325
:1013600009F464C0823879F40E94B70781FF5EC037
:1013700069E380910001909101010E947E140E9416
:10138000D41269E310C08338B1F40E94B70780FF1C
:101390004DC063E580910001909101010E947E148F
:1013A0000E94D41263E580910001909101010E9496
:1013B00089140C94D412843879F40E94B70782FF00
:1013C00035C067E480910001909101010E947E1474
:1013D0000E94D41267E4E7CF9CEF980F913A10F483
:1013E000682FE1CF90E2980F983050F4877091E029
:1013F00001C0990F8A95EAF7892F0E948F12D9CFE1
:101400009BE5980F933020F480E090E00C94EB077C
:1014100098E5980F973120F480E090E00C94010853
:10142000803F20F00E94E9170C946E180895CF9326
:10143000C82F0E940509C93349F42FEF87EE93E0C6
:10144000215080409040E1F700C000008C2FCF91E8
:101450000C94AF09882321F00E9489120C94D412B5
:101460000895882321F00E948F120C94D4120895BD
:10147000CF92DF92EF92FF920F931F93CF93DF9360
:101480007C01062FC72FFC01158112951F70D28198
:10149000D1110E94A6120E947F12882399F0DD23A9
:1014A00089F08C2F807F803421F080E2800F88309B
:1014B00048F082E00E941E130E947F1291E0D82E15
:1014C000D92601C0D12CCC2EC2948FE0C8228C2DFD
:1014D00090E0FC01EA5AFF4F0C94B5208C2F807FDE
:1014E000CF70882311F0C295C07FDD2399F0CC2303
:1014F00009F48DC180E2800F883010F0011104C022
:101500008C2F0E94891203C08C2F0E9499120E9476
:10151000D4127DC1802F0E94AF09CC2309F49CC155
:1015200080E2800F883010F0011104C08C2F0E94DF
:101530008F1203C08C2F0E949F120E94D4128CC164
:101540008C2F807FCF70803211F0C295C07F002336
:1015500019F00130C9F022C0DD2371F0112341F0F0
:10156000113031F40E94B9128C2B0E94C11274C147
:101570000E94B9128C2B1DC0112319F0113009F4EF
:101580006BC10E94CA1225C0DD2321F0163008F07D
:1015900063C10EC0153008F05FC11BC0DD2361F0D0
:1015A000112331F0F701858180FF31C18F70858370
:1015B0008C2F0E942A0A50C1112359F0093309F0D7
:1015C00037C1FFEF27EE83E0F15020408040E1F784
:1015D0002DC18C2F0E94310A3FC18C2F8695869594
:1015E000837019F0813061F037C1DD2321F0802F45
:1015F0009C2F937002C080E090E00E94EB0734C102
:10160000DD2321F0802F9C2F937002C080E090E0BA
:101610000E94010829C1802FDD2319F00E94811743
:1016200002C00E94E9170E946E181EC18C2F8370A1
:1016300009F045C0D11114C1402F4295469547701D
:10164000440F440F602F6F70862F90E0A0E0B0E051
:10165000042E04C0880F991FAA1FBB1F0A94D2F73B
:1016600004FF10C00FE010E020E030E004C0000FE5
:10167000111F221F331F4A95D2F700951095209510
:10168000309503C000E010E09801C695C695C37080
:10169000BC01CD01602B712B822B932BC23049F002
:1016A00058F4C13019F00E94C410DAC00E94B21080
:1016B000D7C00E94D610D4C00E94B010D1C0DD2384
:1016C00019F08C2F817001C08695882309F4C8C059
:1016D000402F429546954770440F440F602F6F701E
:1016E000862F90E0A0E0B0E0042E04C0880F991F80
:1016F000AA1FBB1F0A94D2F704FF10C00FE010E02E
:1017000020E030E004C0000F111F221F331F4A9554
:10171000D2F7009510952095309503C000E010E0B9
:101720009801C695C695C370BC01CD01602B712B85
:10173000822B932BC23049F058F4C13019F00E942B
:1017400089118EC00E9477118BC00E949B1188C0A6
:101750000E94EA1085C0CF70DD2339F08C2F0E94E3
:101760001011802F0E942A0A7BC0802F0E94310A0C
:101770008C2F0E94311174C0023F01F128F4003F08
:1017800041F0013FA1F03FC0033FF9F0043F39F1C0
:101790003AC0DD2341F0153008F05EC08C2F8F7108
:1017A0000E94561159C0163008F056C0F7CFDD23FD
:1017B00039F08C2F8F710E9410114EC0DD23C9F3B8
:1017C0008C2F8F710E94311147C0DD2329F08C2F9F
:1017D0008F710E94FB1040C00E94F6103DC0DD23B7
:1017E00049F0CF718C2F0E94101163E08C2F0E9462
:1017F000091332C081E00E941E13123068F182E0AA
:101800000E941E1329C0DD2331F0112391F2802F95
:101810000E94050921C0112399F2093349F49FEF71
:10182000E7EEF3E09150E040F040E1F700C0000047
:10183000802F0E94AF0910C04C2F4F70602FC7013E
:101840000E9470020E9421100FC04C2F4F70602F19
:10185000C7010E94730208C088EF8C0D843020F409
:101860000E94B7070E941A02DD20C9F00E947B1275
:1018700080FD15C0F70112820E9475120E9410119E
:10188000C7010E94700C0E947512DF91CF911F91C9
:101890000F91FF90EF90DF90CF900C943111DF917A
:1018A000CF911F910F91FF90EF90DF90CF9008950F
:1018B0000F931F93CF93DF93EC01688179818A8125
:1018C0000E9452128C010E94AD110E949E10B8011C
:1018D000CE010E94380ADF91CF911F910F91089598
:1018E000CF93DF93EC01988189812B813C81232B5D
:1018F00031F08F3F31F481E09F3F19F403C081E064
:1019000001C080E080FD19C0CE010E943302811128
:101910000CC00E947F12882381F08A81882369F09D
:1019200082E0DF91CF910C941E13CE010E94580CDF
:10193000CE01DF91CF910C94FE01DF91CF910895FC
:101940000E94A6120E94B6120E94D4120E949819F8
:101950000E946E1880E090E00E94EB0780E090E02B
:101960000C94010880910001909101010E9494144F
:101970000C94A00C0E9496120C94B20CE92FE295E4
:10198000EF704E2F50E0FA013297EE30F105B0F4CF
:10199000EA59FF4F0C94B520803F91F018F4883E2F
:1019A00068F40EC0843F51F40BC0883E48F0813F7C
:1019B00029F406C093FB882780F9089580E00895F4
:1019C00081E008950E9447120E94BE0C0895CF93B3
:1019D000DF9300D000D01F92CDB7DEB70F900F90ED
:1019E0000F900F900F90DF91CF910895CF93DF93D9
:1019F00000D000D000D0CDB7DEB726960FB6F89451
:101A0000DEBF0FBECDBFDF91CF9108951F93CF935F
:101A1000DF93C091910116E080919201C81799F06F
:101A2000D0E01C9FF0011D9FF00D1124ED56FE4FDC
:101A30004081518162817381848195810E94F60C7D
:101A40002196C770E9CFDF91CF911F910895409102
:101A5000C3015091C4016091C5017091C60180918C
:101A6000C7019091C8010C94F60C0F931F93CF936C
:101A7000DF938091C80182958F7009F05DC08091DD
:101A8000C501882309F458C08091910110919201F9
:101A90006091C3017091C401C091C601D091C7018A
:101AA00091E06F3F09F090E0292F06E0811709F4DB
:101AB00043C0209721F07F3F21F030E003C031E0A8
:101AC00001C0322F90E030FD34C0089FF001099F23
:101AD000F00D1124DF01AD56BE4F11963C911197C8
:101AE000371327C03C91361324C012963C911297AD
:101AF00031111FC013964D915C9114974C1B5D0BD7
:101B0000483C5105B0F48091C8018F70806180938A
:101B1000C801E856FE4F80818F708061808383EC1E
:101B200091E00E94700CDF91CF911F910F910C9466
:101B3000060D01968770BACFDF91CF911F910F915B
:101B400008959F92AF92BF92CF92DF92EF92FF9251
:101B50000F931F93CF93DF93CDB7DEB761970FB687
:101B6000F894DEBF0FBECDBF8C0185E0F801DE0129
:101B70001D9601900D928A95E1F7F80140815181FF
:101B8000E2809091C3016091C4012091C60130911F
:101B9000C7012115310531F06F3F31F481E09F3FDE
:101BA00019F403C081E001C080E0F82FF1709F2E8E
:101BB00080FD46C1F801A380B48083ECC82E81E08B
:101BC000D82EF090C501F501E21BF30BFF2009F4BC
:101BD000DFC08091C801E83CF10508F09BC0282FC8
:101BE000207F09F052C0561313C0491311C0FE2CB8
:101BF000E1100EC08F7080618093C8010E94270D94
:101C0000C6010E94700C8091C801F801858358C1FB
:101C1000AB2831F05F3F31F481E04F3F19F403C04E
:101C200081E001C080E080FD03C081E08E2502C01C
:101C300080E090E0F82FF170FF2E80FF1CC08091B3
:101C400091012091920136E0821709F417C190E0CA
:101C5000389FF001399FF00D1124ED56FE4F618140
:101C6000561306C06081461303C06281E61203C0AA
:101C700001968770E9CFFE2CEE2009F421C18091F6
:101C8000C80181608093C8015AC0561306C0491329
:101C900004C0E11002C0F8019FC04D875E878D85AA
:101CA0009E850E94E20C882379F1EE2069F1209153
:101CB000C801822F82958F7090E0029774F0809116
:101CC000C3019091C40198878F831986BB86AA8629
:101CD0002C87CE0107960E94700C86E0F801A3ECD9
:101CE000B1E001900D928A95E1F70E94350D0E94B6
:101CF000270D0DC0561729F14D875E878D859E856E
:101D00000E94E20C81112CC0C8010E94700CFF24BB
:101D1000F394D6C0282F207F69F77A2DB98AA88A34
:101D20006E2D89890E94E70C83EC91E00E94700C73
:101D300086E0F60111928A95E9F70E94270DF12CB1
:101D4000BFC04913D9CFE110D7CFF8018583C801AF
:101D50000E94700C86E0F60111928A95E9F7B0C0F6
:101D6000EE2091F22091C801822F82958F7090E031
:101D700002970CF4B2CF8091C3019091C4019A8371
:101D800089831B82BD82AC822E83CE010196A3CFB4
:101D9000E83CF10508F047C0FE2CEE2009F4B4CF72
:101DA000561330C049132EC02091C80120FD21C018
:101DB000822F82958F70482F50E041155105C9F050
:101DC000F80125834F30510541F08F5F982F929590
:101DD000907F822F8F70892B8583C8010E94700CA1
:101DE00086E0F801A3ECB1E001900D928A95E1F74D
:101DF00042C086E0F801A3ECB1E001900D928A9513
:101E0000E1F75EC04D875E878D859E850E94E20C5E
:101E1000811163CF8091C80181608093C801C8019E
:101E20000E94700C4DC07A2DB98AA88A6E2D8989BE
:101E30000E94E70C86E0F60111928A95E9F71BC033
:101E4000EE2009F461CF4D875E878D859E850E94C7
:101E5000E20CF82E882309F457CF86E0F801A3ECB2
:101E6000B1E001900D928A95E1F783EC91E00E9438
:101E7000FF080E94350D0E94270D22C04D875E8706
:101E80008D859E850E944712292F22952F70223022
:101E900028F49F7039F0811105C00BC0243028F45C
:101EA0009F7049F4805E883020F0C8010E94700C59
:101EB0009F2CF92C05C0F8019581907F99F7F9CFF7
:101EC0008F2D61960FB6F894DEBF0FBECDBFDF91A8
:101ED000CF911F910F91FF90EF90DF90CF90BF9027
:101EE000AF909F9008951F93CF93DF93CDB7DEB748
:101EF0002C970FB6F894DEBF0FBECDBF4F83588727
:101F000069877A878B879C87CE0107960E94A10DEF
:101F10008823D1F09F8188852A853B85232B31F04A
:101F20008F3F31F481E09F3F19F403C081E001C08D
:101F300080E080FD47C04F81588569857A858B8513
:101F40009C850E94F60C3EC086E0FE013796DE01BD
:101F5000119601900D928A95E1F7FF81E8856A85D7
:101F60007B856115710531F0EF3F31F481E0FF3F72
:101F700019F403C081E001C080E080FD23C02091FE
:101F8000920130E0C9010196877099274091910133
:101F900050E084179507F1F1F983EA837D836C8320
:101FA00096E0929FD001939FB00D1124AD56BE4F85
:101FB000FE01319601900D929A95E1F7809392017E
:101FC0000E94060D16E0809191019091920189176F
:101FD00071F1189FC00111248D569E4F0E94A10DD2
:101FE000882329F1E09191011E9FF0011124ED5603
:101FF000FE4F4081518162817381848195810E946D
:10200000F60C8091910190E001968770992780935A
:102010009101D9CF0E94BA0C1092920110929101B5
:10202000E3ECF1E086E0DF011D928A95E9F72C965A
:102030000FB6F894DEBF0FBECDBFDF91CF911F91D9
:102040000895EF92FF920F931F93CF93DF938C012C
:10205000892B09F46CC0F12CEE24E394E80121965D
:10206000F8018491843740F4843008F051C0813005
:1020700081F0823019F15BC0853709F444C0A8F1C2
:102080009CE7980F903708F052C08F770E94AF09F5
:1020900041C00E5F1F4FFE01849190E2980F98306F
:1020A00050F48770FE2D01C0FF0F8A95EAF78F2F3D
:1020B0000E94A91214C00E9405092DC00E5F1F4F77
:1020C000FE01849190E2980F983060F48770FE2DA5
:1020D00001C0FF0F8A95EAF78F2F0E94AF120E946E
:1020E000D41219C00E94AF0916C00E5F1F4FFE0127
:1020F000C491CC2381F08FE99FE00197F1F700C0F4
:102100000000C150F6CF0E5F1F4FFE01F49003C0D8
:102110000E9405098E018F2D882309F49FCFEFE9D6
:10212000FFE03197F1F700C000008150F5CFDF915B
:10213000CF911F910F91FF90EF900895089508950A
:102140000C949F100C94A0100E94A2106093D701D1
:102150007093D8018093D9019093DA010C94A00C6C
:102160000C94A4100F931F930091D7011091D801E4
:102170002091D9013091DA01602B712B822B932BA6
:102180001F910F910C94A4100F931F930091D701EE
:102190001091D8012091D9013091DA016023712387
:1021A000822393231F910F910C94A4100F931F93DC
:1021B0000091D7011091D8012091D9013091DA0115
:1021C00060277127822793271F910F910C94A410E9
:1021D0000C949F100E94E8106093D3017093D40177
:1021E0008093D5019093D6010C94A00C60E070E030
:1021F000CB010C94EA100F931F9341E050E060E094
:1022000070E08A019B0104C0000F111F221F331FC1
:102210008A95D2F7C901B8011F910F910C94EA1069
:102220000F931F9341E050E060E070E004C0440F62
:10223000551F661F771F8A95D2F78091D301909121
:10224000D401A091D501B091D6018A019B01082B40
:10225000192B2A2B3B2BC901B8011F910F910C940C
:10226000EA100F931F9341E050E060E070E004C07B
:10227000440F551F661F771F8A95D2F740955095DA
:10228000609570958091D3019091D401A091D50172
:10229000B091D6018A019B01082319232A233B23ED
:1022A000C901B8011F910F910C94EA100F931F936D
:1022B00041E050E060E070E004C0440F551F661F2D
:1022C000771F8A95D2F78091D3019091D401A09184
:1022D000D501B091D6018A019B01082719272A2729
:1022E0003B27C901B8011F910F910C94EA100F937D
:1022F0001F930091D3011091D4012091D501309109
:10230000D601602B712B822B932B1F910F910C9474
:10231000EA100F931F930091D3011091D4012091E3
:10232000D5013091D60160237123822393231F911D
:102330000F910C94EA100F931F930091D301109109
:10234000D4012091D5013091D601602771278227D1
:1023500093271F910F910C94EA100895292F220FB3
:10236000920F890FE82FE695E695E695877051E084
:1023700001C0550F8A95EAF785E0E89FF001112426
:10238000E753FE4F20E030E070E04081CB01022EA9
:1023900002C0969587950A94E2F78170819584270B
:1023A0008523842781932F5F3F4F2530310569F7BF
:1023B0000895292F220F920F890F682F6695669531
:1023C0006695982F977085E0689FB001112440E0D2
:1023D00050E080E0FB01E40FF51FE753FE4F208142
:1023E00030E0092E02C0369527950A94E2F7217055
:1023F0003327042E01C0220F0A94EAF7822B4F5F85
:102400005F4F4530510531F70895BF92CF92DF926B
:10241000EF92FF920F931F93CF93DF938C01C090A5
:10242000D301D090D401E090D501F090D6018091F5
:10243000D7019091D801A091D901B091DA01C82AB1
:10244000D92AEA2AFB2ACFE1D0E0D701C6010C2E17
:1024500004C0B695A795979587950A94D2F780FD05
:1024600004C0219790F7B12C07C0BC2EB8018C2F67
:102470000E9492020197A9F38B2DDF91CF911F91BA
:102480000F91FF90EF90DF90CF90BF900895CF9382
:10249000DF93EC010E940512BE010E949202DF91BF
:1024A000CF9108951F93CF93DF93EB01909190010B
:1024B000992321F0CB010E94471213C0882349F0D1
:1024C000CB010E940512182F682FCE010E94AE1179
:1024D00004C0CB010E94D911182FBE01812F0E9488
:1024E0009202DF91CF911F9108958091DB01859534
:1024F0008595859508958091DB0187700895909169
:10250000DB01977081E009F480E008958091FF017C
:1025100008959091FF01892B8093FF010895809584
:102520009091FF0189238093FF0108951092FF018C
:1025300008959091FE01892B8093FE010895809566
:102540009091FE0189238093FE0108951092FE016F
:1025500008959091FD01892B8093FD010895809548
:102560009091FD0189238093FD0108951092FD0152
:1025700008958091DC01089508950C94BC120C9488
:10258000BD129091DC01981721F08093DC010C942E
:10259000BF1208958091DC01882329F01092DC019C
:1025A00080E00C94BF120895E0910001F0910101C8
:1025B0008091FF018083E0910001F0910101908101
:1025C0008091FE01892B8083E0910001F09101014F
:1025D00090818091FD01892B80838091DC0188238B
:1025E00081F0E0910001F09101019081892B8083BD
:1025F00080910001909101010E94E81381110E94D5
:10260000CA1280910001909101010C94C3070C94AF
:10261000BC1298E0899F90011124262B2093DB01A6
:102620000E9410118091DB018595859585950C940C
:1026300007131092DB0180E00C9407132091DB015B
:10264000809582238093DB01982F977079F430E096
:10265000482F082E000C550B2417350739F08595A7
:10266000859585950E9431110C941913089580E089
:1026700090E00E94D72021E08C3E9E4F09F020E0A0
:10268000822F089582E090E00C94CF20682F82E0A2
:1026900090E00C94DD2083E090E00C94CF20682F34
:1026A00083E090E00C94DD20CF9384E090E00E94E2
:1026B000CF20C82F81E290E00E94CF202C2F30E065
:1026C000A901582BCA01CF910895CF93C92F682F24
:1026D00084E090E00E94DD206C2F81E290E0CF91B9
:1026E0000C94DD20AB01BC018FE090E00C94EF2056
:1026F000AB01BC0183E190E00C94EF2060E070E05E
:10270000CB010C94781360E070E0CB010E9472134F
:102710000C947E136CEE7EEF80E090E00E94FB2034
:1027200060E082E090E00E94DD2060E083E090E0E5
:102730000E94DD201092D7011092D8011092D90189
:102740001092DA0160E084E090E00E94DD2060E019
:1027500081E290E00E94DD2060E085E090E00E9450
:10276000DD2060E086E090E00E94DD206FEF87E0F2
:1027700090E00E94DD2040E050E0BA0188E090E067
:102780000E94EF2060E08DE090E00E94DD2040E0BC
:1027900050E0BA0188E190E00E94EF2060E087E11C
:1027A00090E00E94DD2040E050E0BA018CE190E032
:1027B0000E94EF2060E080E290E00E94DD200C9417
:1027C00083130C948A13682F8EE090E00C94DD2024
:1027D000FC01329680911401882331F080913F02F0
:1027E00087FF02C09EE101C096E080E0915028F092
:1027F00021912223D9F38F5FF9CF0895662351F1F8
:10280000209114012223E9F020913F0227FF19C0F3
:10281000462F4695469546954E31E0F4677021E087
:1028200030E002C0220F331F6A95E2F7FC01E40F8B
:10283000F11D828190E02823392381E0232B69F464
:1028400009C0FC01329608962191621729F0E81719
:10285000F907D1F780E0089581E008959C01FC011B
:1028600032969FEF80E04191461789F09F3F19F41F
:10287000411101C0982F8F5F8630A9F79F3F39F033
:10288000F901E90FF11D97FDFA9562830895089506
:102890009C012A5F3F4FFC014281461301C0128216
:1028A000019682179307B9F70895262F2695269546
:1028B00026952E3168F4FC01E20FF11D677021E0CE
:1028C00030E001C0220F6A95EAF78281282B22832B
:1028D0000895262F2695269526952E3170F4FC0115
:1028E000E20FF11D677021E030E001C0220F6A9510
:1028F000EAF72095828128232283089520911401EC
:10290000222329F020913F0227FD0C9455140C94AA
:102910002E1420911401222329F020913F0227FD3B
:102920000C9469140C94481420911401FC01329603
:10293000222331F080913F0287FF02C08EE101C067
:1029400086E0DF011D928A95E9F7089508950C94B9
:10295000A6140C94A614CF930E94A9140E94E40418
:102960000E94A714C0E08C2F0E948104811104C032
:10297000CF5FC430C1F701C081E0CF9108950C94BE
:10298000A6140C94BF140E94C11480914502843097
:1029900049F11092010220E488E190E00FB6F8942A
:1029A000A895809360000FBE2093600080E00E9495
:1029B0001A020E94C11483B7817F846083BF83B7EA
:1029C000816083BF7894889583B78E7F83BF0FB66D
:1029D000F894A895809160008861809360001092BF
:1029E00060000FBE08950C94A6140E94BA0C0E94B9
:1029F000B7070E941A020C94F3141F920F920FB69D
:102A00000F9211248F939F93AF93BF9380910102F4
:102A1000811113C080913B0290913C02A0913D0234
:102A2000B0913E024196A11DB11D80933B0290934F
:102A30003C02A0933D02B0933E02BF91AF919F91A3
:102A40008F910F900FBE0F901F90189582E084BD5C
:102A500093E095BD9AEF97BD80936E0008952FB7D0
:102A6000F89480913B0290913C02A0913D02B0917C
:102A70003E022FBF08959C014FB7F89480913B020E
:102A800090913C02A0913D02B0913E024FBF821B4B
:102A9000930B089578941F920F920FB60F92112402
:102AA0008F939F93AF93BF9380913B0290913C0291
:102AB000A0913D02B0913E020196A11DB11D8093EF
:102AC0003B0290933C02A0933D02B0933E02BF9123
:102AD000AF919F918F910F900FBE0F901F901895FF
:102AE00087E797E790930108809300089AE088E1D0
:102AF0000FB6F894A895809360000FBE9093600085
:102B0000FFCFCF92DF92EF92FF920F931F93CF935D
:102B1000C0E0E82EF12C8C2F0E94810400E010E030
:102B2000C82ED12CC601002E02C0959587950A9417
:102B3000E2F780FD06C00F5F1F4F0330110591F7CC
:102B40000AC0602F7C2F80E00E947402E816F9060C
:102B500091F781E004C0CF5FC430E9F680E0CF9107
:102B60001F910F91FF90EF90DF90CF900895CF933A
:102B7000C82F8CE20E948115882321F08C2FCF91E1
:102B80000C94811580E0CF910895CF930E94371364
:102B9000811102C00E94E113C5E6C15049F00E94B4
:102BA000E4048FE39CE90197F1F700C00000F5CF42
:102BB00089E20E94B715811120C18AE20E94B715EF
:102BC00081110E94E11385E00E94B71581110E94D6
:102BD00070150E9442138093000287E00E94B7158F
:102BE0008823A9F18BE10E94B715882351F08091C9
:102BF000000281FB222720F991E0922790FB81F9C6
:102C00000EC08EE00E94B715882361F0809100020B
:102C100082FB222720F991E0922790FB82F9809392
:102C2000000215C080E10E94B71590910002882330
:102C300041F093FB222720F981E0822780FB93F962
:102C400004C0892F809580FB90F9909300028091B9
:102C500000020E9446130E945413909340028093F6
:102C60003F0280EE0E94B715882341F080913F0219
:102C7000982F909590FB80F980933F0289E30E9402
:102C8000B715882359F080913F0281FB222720F954
:102C900091E0922790FB81F980933F0282EE0E949F
:102CA000B715882359F080913F0282FB222720F933
:102CB00091E0922790FB82F980933F0286EE0E947A
:102CC000B715882359F080913F0283FB222720F912
:102CD00091E0922790FB83F980933F0283EE0E945C
:102CE000B715882359F080913F0284FB222720F9F1
:102CF00091E0922790FB84F980933F0285E30E9444
:102D0000B715882359F080913F0285FB222720F9CF
:102D100091E0922790FB85F980933F0281E30E9426
:102D2000B715882359F080913F0286FB222720F9AE
:102D300091E0922790FB86F980933F0281E10E9407
:102D4000B715882359F080913F0287FB222720F98D
:102D500091E0922790FB87F980933F0280913F0298
:102D6000909140020E94651387E20E94B715C82F18
:102D70008EE10E94B7158111C2608FE10E94B715E4
:102D80008111C46080E20E94B7158111C86081E2A0
:102D90000E94B7158111C06182E20E94B7158111AE
:102DA000C06283E20E94B7158111C06484E20E9470
:102DB000B715882311F0C06802C0CC2329F08C2FEE
:102DC0000E944F136C2F03C00E944B13682F70E0BA
:102DD00080E090E00E94B0108FE00E94B715882339
:102DE00019F081E00E94E31385E10E94B715882362
:102DF00021F080E0CF910C94E313CF91089580915E
:102E0000090280FF0BC06091070185E0689FB00157
:102E1000112475956795759567952BC081FF09C03D
:102E20006091070185E0689FB00111247595679551
:102E300020C082FF07C06091070185E0689FB00154
:102E4000112417C0909108029923D1F060910601D6
:102E5000961788F72091070185E0289F900111249B
:102E6000929FA001939F500D112470E0CA010E940F
:102E7000A1206038710540F46115710519F406C090
:102E800065E070E0862F08958FE7089581E008954A
:102E90008091090280FF08C06091030170E0759580
:102EA00067957595679521C081FF06C06091030104
:102EB00070E07595679519C082FF04C060910301A9
:102EC00070E010C090910802992399F0609102017E
:102ED0009617A0F780910301899FC001112470E02B
:102EE0000E94A1206038710540F46115710519F444
:102EF00006C061E070E0862F08958FE7089581E0B5
:102F00000895803F21F40E94FF16819504C0813FFF
:102F100029F40E94FF1680930D020895823F21F448
:102F20000E94FF16819504C0833F29F40E94FF167A
:102F300080930C020895893F19F40E94481705C038
:102F40008A3F31F40E944817819580930E020895BC
:102F50008B3F21F40E944817819504C08C3F29F4CF
:102F60000E94481780930F020895843F21F48091B6
:102F70000B02816017C0853F21F480910B028260B3
:102F800011C0863F21F480910B0284600BC0873F03
:102F900021F480910B02886005C0883F31F4809154
:102FA0000B02806180930B0208958D3F21F4809184
:102FB000090281600BC08E3F21F48091090282607A
:102FC00005C08F3F29F48091090284608093090233
:102FD0000895803F39F480910D0287FF6CC01092F4
:102FE0000D0269C0813F29F480910D021816BCF3CF
:102FF00062C090910C02823F29F497FF5CC010924E
:103000000C0259C0833F19F41916CCF354C0893F00
:1030100041F480910E0218160CF04DC010920E0271
:103020004AC08A3F29F480910E0287FF44C0F6CF40
:103030008B3F39F480910F0287FF3DC010920F0241
:103040003AC08C3F29F480910F021816BCF333C0AC
:10305000843F21F480910B028E7F17C0853F21F4BD
:1030600080910B028D7F11C0863F21F480910B026D
:103070008B7F0BC0873F21F480910B02877F05C0B7
:10308000883F31F480910B028F7E80930B0213C036
:103090008D3F21F4809109028E7F0BC08E3F21F479
:1030A000809109028D7F05C08F3F29F4809109022C
:1030B0008B7F8093090280910C0281110EC0809158
:1030C0000D0281110AC080910E02811106C080910B
:1030D0000F02811102C01092080208958AE092E066
:1030E0000E94DD070E942F1590930702809306022D
:1030F0000895CF93DF9300D000D000D0CDB7DEB7D6
:1031000086E0EAE0F2E0DE01119601900D928A95E8
:10311000E1F780910C02811105C080910D02882396
:1031200009F47AC080910402909105020E943B1537
:10313000AC0190910802992339F02091080130E008
:103140002417350758F068C0209109018AE0289FAC
:10315000900111242417350718F05EC09F3F19F025
:103160009F5F9093080210920E0210920F028091BE
:103170000C02181624F40E94FF1680930C02809112
:103180000C0287FF05C00E94FF16819580930C02F8
:1031900080910D02181624F40E94FF1680930D02F0
:1031A00080910D0287FF05C00E94FF1681958093D4
:1031B0000D0230910C023323E1F020910D02222305
:1031C000C1F045EB3403C0011124992319F0909309
:1031D0000C0203C081E080930C0235EB2303C00195
:1031E0001124992319F090930D0203C081E080937C
:1031F0000D020E946E188091060290910702909332
:1032000005028093040286E0FE013196AAE0B2E056
:1032100001900D928A95E1F780910E02811105C00F
:1032200080910F02882309F47AC080910202909164
:1032300003020E943B15AC0190910802992339F0DA
:103240002091040130E02417350758F068C0209120
:1032500005018AE0289F900111242417350718F0F2
:103260005EC09F3F19F09F5F9093080210920C027E
:1032700010920D0280910E02181624F40E94481735
:1032800080930E0280910E0287FF05C00E944817AE
:10329000819580930E0280910F02181624F40E94EB
:1032A000481780930F0280910F0287FF05C00E948C
:1032B0004817819580930F0230910E023323E1F07D
:1032C00020910F022223C1F045EB3403C0011124E9
:1032D000992319F090930E0203C081E080930E02AF
:1032E00035EB2303C0011124992319F090930F02A9
:1032F00003C081E080930F020E946E188091060245
:1033000090910702909303028093020286E0FE01EF
:103310003196AAE0B2E001900D928A95E1F72696E7
:103320000FB6F894DEBF0FBECDBFDF91CF910895E9
:10333000EAE0F2E086E0DF011D928A95E9F710925B
:103340000802109209020895809130020895CF93E7
:10335000DF9300D01F92CDB7DEB790914502943035
:1033600019F589837B836A8382E08093E9008FEF7C
:103370009091E800815095FD06C095ED9A95F1F782
:1033800000008111F5CF8091E80085FF0DC040E07D
:1033900050E063E070E0CE0101960E94031C809132
:1033A000E8008E778093E8000F900F900F90DF91E8
:1033B000CF910895CF93DF93EC010E94E61B8230FA
:1033C00011F0843031F4BE0184E0DF91CF910C9490
:1033D000A719DF91CF910895BC0183E00C94A71940
:1033E000CF93DF93EC010E94E61B823011F0843012
:1033F000F9F482E08093E9008FEF9091E80081502A
:1034000095FD06C095ED9A95F1F700008111F5CF75
:103410008091E80085FF0CC040E050E066E070E07D
:10342000CE010E94031C8091E8008E778093E80013
:10343000DF91CF910895CF93DF93EC010E94E61BBB
:10344000823011F08430D9F580911401882339F04D
:1034500080913F0287FF03C060E282E002C068E023
:1034600081E08093E9008FEF9091E800815095FD15
:1034700006C095ED9A95F1F700008111F5CF809186
:10348000E80085FF1CC080911401811105C040E057
:1034900050E068E070E003C070E040E050E0CE0132
:1034A0000E94031C8091E8008E778093E80080E200
:1034B000FE01A0E1B2E001900D928A95E1F7DF9163
:1034C000CF91089580914402811109C00E94941DFA
:1034D0000E94F11D8091E20084608093E2000895D3
:1034E000109244020895089508950C94F51442E052
:1034F00061EC81E00E940D1D42E261EC82E00C94DF
:103500000D1D80914702833009F460C030F4813092
:1035100071F0823009F499C008958A3009F485C0A9
:103520008B3009F46BC0893009F0A7C020C08091AE
:103530004602813A09F0A1C08091E800877F80931C
:10354000E80080914A0290914B02892B21F460E2BD
:1035500080E192E003C060E080E090E070E00E94D3
:103560004E1C8091E8008B778093E800089580914D
:103570004602813209F081C080914A0290914B024B
:10358000029708F07AC08091E800877F8093E80076
:103590008091E80082FD05C0809145028111F8CF3D
:1035A0006CC02091F3008091F20090E0922B029782
:1035B00029F48091F1008B7F813021F48091F1001A
:1035C000809330028091E8008B7753C0809146024F
:1035D000813A09F052C080914A0290914B02892BA6
:1035E00009F04BC08091E800877F8093E8008091CC
:1035F000E80080FFFCCF8091140136C08091460224
:103600008132D9F580914A0290914B02892BA9F51C
:103610008091E800877F8093E8000E94421D80919E
:103620004802809314010C94BA0C809146028132B6
:1036300021F58091E800877F8093E8000E94421D79
:103640008091490280933102089580914602813A27
:10365000A1F48091E800877F8093E8008091E800E2
:1036600080FFFCCF809131028093F1008091E800CF
:103670008E778093E8000C94421D089584B7877F6D
:1036800084BF0FB6F894A8958091600088618093FC
:103690006000109260000FBE90E080E80FB6F894D2
:1036A00080936100909361000FBE0E9427080E94E2
:1036B000941D0E94F11D8091E20084608093E200DD
:1036C00078940E9486200E9431088AE091E00E944E
:1036D000B20780914502853069F40E94C31480913D
:1036E00043028823B1F30E94AB14882391F30E9414
:1036F000ED1BEFCF0E943908ECCF0C947F1B292FD4
:10370000332723303105C9F060F42130310581F0D1
:103710002230310509F04AC08BE390E022E931E024
:1037200049C02132310511F12232310579F13EC013
:1037300082E190E02DEC31E03DC099278130910588
:1037400061F040F08230910559F0039779F5ECE58E
:10375000F1E008C0EEE8F1E005C0EAE7F1E002C000
:10376000E2E6F1E0849190E09F0124C061157105CB
:1037700041F061307105D1F489E090E02DEB31E04A
:1037800019C089E090E024EA31E014C061157105A8
:1037900041F06130710551F48CEB90E02FED31E098
:1037A00009C080E490E02BE932E004C080E090E0C2
:1037B00020E030E0FA0131832083089580914502B2
:1037C000843011F081E0089582E008958091320202
:1037D000811102C00C94DE1B089580E189BD82E155
:1037E00089BD09B400FEFDCF8091D8008F7D809304
:1037F000D8008091E00082608093E0008091E0003A
:1038000081FDFCCF0895CF92DF92EF92FF920F934C
:103810001F93CF93DF93EC018B017A010E94611D0E
:10382000811133C0E114F10439F0F70180819181F5
:10383000081B190BC80FD91FC12CD12C011511055C
:1038400019F18091E80085FD16C08091E8008E771F
:103850008093E800E114F10449F0F701808191813F
:10386000C80ED91ED182C08285E00FC00E94611DA2
:10387000882321F30AC089918093F1000150110936
:10388000FFEFCF1ADF0ADACF80E0DF91CF911F91EF
:103890000F91FF90EF90DF90CF90089520914C0210
:1038A00030914D022617370748F06115710539F43C
:1038B0002091E8002E772093E80001C0B901FC01B7
:1038C00020E06115710579F1809145028823F1F1BD
:1038D0008530F1F18091E80083FD3CC08091E800E3
:1038E00082FD2EC08091E80080FFEBCF2091F30095
:1038F0008091F20090E0922B6115710551F08830B3
:10390000910538F421912093F100615071090196DD
:10391000F3CF21E0089709F020E08091E8008E774E
:103920008093E800CECF2111CFCF0AC0809145020D
:10393000882361F0853061F08091E80083FD0AC042
:103940008091E80082FFF2CF80E0089582E0089540
:1039500083E0089581E0089520914C0230914D025A
:103960002617370748F06115710539F42091E800F2
:103970002E772093E80001C0B901FC0120E0611519
:10398000710591F180914502882309F440C085308A
:1039900009F43FC08091E80083FD3DC08091E800BC
:1039A00082FD2FC08091E80080FFE9CF2091F300D5
:1039B0008091F20090E0922B6115710559F08830EA
:1039C000910540F424912093F100319661507109E2
:1039D0000196F2CF21E0089709F020E08091E800FD
:1039E0008E778093E800CBCF2111CCCF0AC0809195
:1039F0004502882361F0853061F08091E80083FD05
:103A00000AC08091E80082FFF2CF80E0089582E052
:103A1000089583E0089581E00895982F973068F520
:103A20009093E900981739F07091EC002091ED0027
:103A30005091F00003C0242F762F50E021FD02C0EA
:103A40009F5FECCF3091EB003E7F3093EB003091E5
:103A5000ED003D7F3093ED003091EB00316030930D
:103A6000EB007093EC002093ED005093F000209158
:103A7000EE0027FDE5CF80E008958F708093E90088
:103A800081E008958091460287FF11C08091E8008F
:103A900082FD05C0809145028111F8CF11C080914F
:103AA000E8008B770BC080914502882349F0809114
:103AB000E80080FFF8CF8091E8008E778093E800DF
:103AC00008952091E4003091E50095E64091EC00E6
:103AD000842F817040FF23C08091E80080FD1DC0CD
:103AE00080914502882399F0853099F08091EB0010
:103AF00085FD11C04091E4005091E5002417350781
:103B000029F3915011F09A01E1CF84E0089582E009
:103B1000089583E0089581E0089580E0089540913C
:103B2000E80042FFDDCF08950E94021E0E940A1E97
:103B3000E0EEF0E0808181608083E8EDF0E080815C
:103B40008F77808319BCA7EDB0E08C918E7F8C932A
:103B500080818F7E80831092440208950F931F937B
:103B6000CF93DF930E94021E0E940A1EC8EDD0E090
:103B700088818F77888388818068888388818F7D1A
:103B8000888319BC109245021092410210924302A0
:103B90001092420200EE10E0F80180818B7F80835A
:103BA00088818160888342E060E080E00E940D1D92
:103BB000E1EEF0E080818E7F8083E2EEF0E08081B4
:103BC00081608083808188608083F80180818E7F1E
:103BD0008083888180618883DF91CF911F910F91CD
:103BE0000895E8EDF0E080818F7E8083E7EDF0E0DE
:103BF00080818160808384E082BF81E08093440281
:103C00000C94AE1DE8EDF0E080818E7F80831092F1
:103C1000E20008951092DA001092E10008951F92D8
:103C20000F920FB60F9211242F933F934F935F93F0
:103C30006F937F938F939F93AF93BF93EF93FF9374
:103C40008091E10082FF0BC08091E20082FF07C0FB
:103C50008091E1008B7F8093E1000E94852080911C
:103C6000DA0080FF1FC08091D80080FF1BC08091C8
:103C7000DA008E7F8093DA008091D90080FF0DC03A
:103C800080E189BD82E189BD09B400FEFDCF81E0FC
:103C9000809345020E94621A05C019BC1092450229
:103CA0000E94701A8091E10080FF19C08091E200AB
:103CB00080FF15C08091E2008E7F8093E2008091AA
:103CC000E20080618093E2008091D800806280935E
:103CD000D80019BC85E0809345020E94741A809137
:103CE000E10084FF30C08091E20084FF2CC080E1BD
:103CF00089BD82E189BD09B400FEFDCF8091D80065
:103D00008F7D8093D8008091E1008F7E8093E100C9
:103D10008091E2008F7E8093E2008091E2008160DA
:103D20008093E20080914102882311F084E007C073
:103D30008091E30087FD02C081E001C083E08093B1
:103D400045020E94751A8091E10083FF29C080918D
:103D5000E20083FF25C08091E100877F8093E1002E
:103D600082E080934502109241028091E1008E7FB3
:103D70008093E1008091E2008E7F8093E200809149
:103D8000E20080618093E20042E060E080E00E9417
:103D90000D1D8091F00088608093F0000E94731ADE
:103DA000FF91EF91BF91AF919F918F917F916F9113
:103DB0005F914F913F912F910F900FBE0F901F90E9
:103DC00018951F920F920FB60F9211242F933F93C5
:103DD0004F935F936F937F938F939F93AF93BF9313
:103DE000CF93DF93EF93FF93C091E900CF70809161
:103DF000EC00D82FD17080FDD0E81092E9008091BE
:103E0000F000877F8093F00078940E94251F109225
:103E1000E9008091F00088608093F000CD2BCF7096
:103E2000C093E900FF91EF91DF91CF91BF91AF91E6
:103E30009F918F917F916F915F914F913F912F91C2
:103E40000F900FBE0F901F9018951F93CF93DF9385
:103E5000CDB7DEB7AA970FB6F894DEBF0FBECDBFC1
:103E6000E6E4F2E08091F100819322E0EE34F20783
:103E7000C9F70E94811A8091E80083FF2EC18091CA
:103E8000460290914702492F50E04A30510508F010
:103E900024C1FA01EC58FF4F0C94B520803821F072
:103EA000823809F01AC108C0809142029091430201
:103EB000992389F082600FC080914A028F70873009
:103EC00008F00BC18093E9008091EB0085FB882707
:103ED00080F91092E9009091E800977F9093E800B4
:103EE0008093F1001092F100D1C0282F2D7F09F0AE
:103EF000F4C0882319F0823061F0EFC0809148024D
:103F0000813009F0EAC0933009F080E080934302E9
:103F10002EC08091480281112AC080914A028F7080
:103F20002FEF280F263008F0D8C08093E9002091A9
:103F3000EB0020FF1CC0933021F48091EB008062E5
:103F400014C09091EB0090619093EB0021E030E081
:103F5000A90102C0440F551F8A95E2F74093EA0079
:103F60001092EA008091EB0088608093EB00109241
:103F7000E9008091E800877F8093E8000E94421D5D
:103F8000ACC08111AAC0109148021F778091E30054
:103F90008078812B8093E3008091E800877F809375
:103FA000E8000E94421D8091E80080FFFCCF8091D4
:103FB000E30080688093E300111102C082E001C039
:103FC00083E08093450289C08058823008F085C024
:103FD00080914802909149028C3D53E0950779F514
:103FE00083E08A838AE289834FB7F894DE011396CF
:103FF00020E03EE051E2E32FF0E050935700E491DF
:1040000020FF03C0E295EF703F5FEF708E2F90E0CE
:10401000EA3010F0C79601C0C0968D939D932F5F34
:10402000243149F74FBF8091E800877F8093E800F3
:104030006AE270E0CE0101960E944E1C16C06091AB
:104040004A0270914B02AE014F5F5F4F0E947D1B91
:10405000BC01892B09F441C09091E800977F9093AF
:10406000E80089819A810E94AC1C8091E8008B77DE
:104070008093E80032C0803881F58091E800877F26
:104080008093E800809141028093F1008091E800E4
:104090008E7772CF811121C08091480290914902A0
:1040A00099270297D4F48091E800877F8093E800F5
:1040B00080914802809341020E94421D80914102FA
:1040C000811106C08091E30087FD02C081E001C03C
:1040D00084E0809345020E94771A8091E80083FF74
:1040E0000AC08091E800877F8093E8008091EB0010
:1040F00080628093EB00AA960FB6F894DEBF0FBEE5
:10410000CDBFDF91CF911F9108950895CF938091F6
:1041100045028823A1F0C091E900CF709091EC0096
:10412000892F817090FD80E8C82B1092E900809162
:10413000E80083FD0E94251FCF70C093E900CF9156
:10414000089597FB072E16F4009407D077FD09D049
:104150000E94BB2007FC05D03EF4909581959F4FAF
:104160000895709561957F4F0895EE0FFF1F05909C
:10417000F491E02D0994AA1BBB1B51E107C0AA1FB3
:10418000BB1FA617B70710F0A61BB70B881F991FF8
:104190005A95A9F780959095BC01CD010895F9999C
:1041A000FECF92BD81BDF89A992780B50895A8E108
:1041B000B0E042E050E00C940321262FF999FECFA5
:1041C00092BD81BDF89A019700B4021639F01FBA6A
:1041D00020BD0FB6F894FA9AF99A0FBE0895039687
:1041E000272F0E94DE200E94DD20252F0E94DE2046
:1041F000242F0C94DE200196272F0E94DE200C94A1
:10420000DD20DC01CB01FC01F999FECF06C0F2BD37
:10421000E1BDF89A319600B40D9241505040B8F784
:064220000895F894FFCFA1
:10422600DD012808641E140A321EA4191B1AF0198F
:10423600EC19DA1901E200E900EA00B500B600B7A8
:1042460000CD008301CC008A019201940121022352
:104256000224022502260227022A02B300B4006FB6
:10426600007000818283F4F6F5F7313332E200E91B
:1042760000EA00B500B600B700CD008301CC008A85
:10428600019201940121022302240225022602271B
:0E429600022A02B300B4006F00700081828320
:00000001FF
